{
  "_format": "hh-sol-artifact-1",
  "contractName": "YawWallet",
  "sourceName": "contracts/YawWallet.sol",
  "abi": [
    {
      "anonymous": false,
      "inputs": [
        {
          "indexed": true,
          "internalType": "address",
          "name": "previousOwner",
          "type": "address"
        },
        {
          "indexed": true,
          "internalType": "address",
          "name": "newOwner",
          "type": "address"
        }
      ],
      "name": "OwnershipTransferred",
      "type": "event"
    },
    {
      "inputs": [
        {
          "internalType": "address",
          "name": "destination",
          "type": "address"
        },
        {
          "internalType": "uint256",
          "name": "value",
          "type": "uint256"
        },
        {
          "internalType": "uint256",
          "name": "txGas",
          "type": "uint256"
        },
        {
          "internalType": "bytes",
          "name": "txData",
          "type": "bytes"
        }
      ],
      "name": "execute",
      "outputs": [],
      "stateMutability": "payable",
      "type": "function"
    },
    {
      "inputs": [
        {
          "internalType": "address",
          "name": "ownerAddr",
          "type": "address"
        }
      ],
      "name": "initOwner",
      "outputs": [],
      "stateMutability": "nonpayable",
      "type": "function"
    },
    {
      "inputs": [],
      "name": "owner",
      "outputs": [
        {
          "internalType": "address",
          "name": "",
          "type": "address"
        }
      ],
      "stateMutability": "view",
      "type": "function"
    },
    {
      "inputs": [
        {
          "internalType": "address",
          "name": "newOwner",
          "type": "address"
        }
      ],
      "name": "transferOwnership",
      "outputs": [],
      "stateMutability": "nonpayable",
      "type": "function"
    }
  ],
  "bytecode": "0x608060405234801561001057600080fd5b506001600081905550610c95806100286000396000f3fe60806040526004361061003f5760003560e01c80630d00929714610044578063829163811461006d5780638da5cb5b14610089578063f2fde38b146100b4575b600080fd5b34801561005057600080fd5b5061006b600480360381019061006691906106c9565b6100dd565b005b6100876004803603810190610082919061071b565b6101eb565b005b34801561009557600080fd5b5061009e61036b565b6040516100ab91906108ba565b60405180910390f35b3480156100c057600080fd5b506100db60048036038101906100d691906106c9565b610483565b005b600073ffffffffffffffffffffffffffffffffffffffff16600160009054906101000a900473ffffffffffffffffffffffffffffffffffffffff1673ffffffffffffffffffffffffffffffffffffffff161480156101685750600073ffffffffffffffffffffffffffffffffffffffff168173ffffffffffffffffffffffffffffffffffffffff1614155b6101a7576040517f08c379a000000000000000000000000000000000000000000000000000000000815260040161019e90610915565b60405180910390fd5b80600160006101000a81548173ffffffffffffffffffffffffffffffffffffffff021916908373ffffffffffffffffffffffffffffffffffffffff16021790555050565b6101f36105a6565b60026000541415610239576040517f08c379a000000000000000000000000000000000000000000000000000000000815260040161023090610935565b60405180910390fd5b60026000819055506101f4603f6040856102539190610a38565b61025d9190610a07565b61026791906109b1565b5a116102a8576040517f08c379a000000000000000000000000000000000000000000000000000000000815260040161029f906108d5565b60405180910390fd5b60008573ffffffffffffffffffffffffffffffffffffffff1685859085856040516102d49291906108a1565b600060405180830381858888f193505050503d8060008114610312576040519150601f19603f3d011682016040523d82523d6000602084013e610317565b606091505b505090508061035b576040517f08c379a0000000000000000000000000000000000000000000000000000000008152600401610352906108f5565b60405180910390fd5b5060016000819055505050505050565b60006103ae600160009054906101000a900473ffffffffffffffffffffffffffffffffffffffff1673ffffffffffffffffffffffffffffffffffffffff1661061d565b1561045a57600160009054906101000a900473ffffffffffffffffffffffffffffffffffffffff1673ffffffffffffffffffffffffffffffffffffffff16638da5cb5b6040518163ffffffff1660e01b815260040160206040518083038186803b15801561041b57600080fd5b505afa15801561042f573d6000803e3d6000fd5b505050506040513d601f19601f8201168201806040525081019061045391906106f2565b9050610480565b600160009054906101000a900473ffffffffffffffffffffffffffffffffffffffff1690505b90565b61048b6105a6565b600073ffffffffffffffffffffffffffffffffffffffff168173ffffffffffffffffffffffffffffffffffffffff1614156104fb576040517f08c379a00000000000000000000000000000000000000000000000000000000081526004016104f290610975565b60405180910390fd5b600061050561036b565b905081600160006101000a81548173ffffffffffffffffffffffffffffffffffffffff021916908373ffffffffffffffffffffffffffffffffffffffff1602179055508173ffffffffffffffffffffffffffffffffffffffff168173ffffffffffffffffffffffffffffffffffffffff167f8be0079c531659141344cd1fd0a4f28419497f9722a3daafe3b4186f6b6457e060405160405180910390a35050565b3373ffffffffffffffffffffffffffffffffffffffff166105c561036b565b73ffffffffffffffffffffffffffffffffffffffff161461061b576040517f08c379a000000000000000000000000000000000000000000000000000000000815260040161061290610955565b60405180910390fd5b565b6000808273ffffffffffffffffffffffffffffffffffffffff163b119050919050565b60008135905061064f81610c31565b92915050565b60008151905061066481610c31565b92915050565b60008083601f84011261067c57600080fd5b8235905067ffffffffffffffff81111561069557600080fd5b6020830191508360018202830111156106ad57600080fd5b9250929050565b6000813590506106c381610c48565b92915050565b6000602082840312156106db57600080fd5b60006106e984828501610640565b91505092915050565b60006020828403121561070457600080fd5b600061071284828501610655565b91505092915050565b60008060008060006080868803121561073357600080fd5b600061074188828901610640565b9550506020610752888289016106b4565b9450506040610763888289016106b4565b935050606086013567ffffffffffffffff81111561078057600080fd5b61078c8882890161066a565b92509250509295509295909350565b6107a481610a92565b82525050565b60006107b68385610995565b93506107c3838584610ace565b82840190509392505050565b60006107dc6006836109a0565b91506107e782610b3b565b602082019050919050565b60006107ff6006836109a0565b915061080a82610b64565b602082019050919050565b60006108226006836109a0565b915061082d82610b8d565b602082019050919050565b6000610845601f836109a0565b915061085082610bb6565b602082019050919050565b60006108686006836109a0565b915061087382610bdf565b602082019050919050565b600061088b6006836109a0565b915061089682610c08565b602082019050919050565b60006108ae8284866107aa565b91508190509392505050565b60006020820190506108cf600083018461079b565b92915050565b600060208201905081810360008301526108ee816107cf565b9050919050565b6000602082019050818103600083015261090e816107f2565b9050919050565b6000602082019050818103600083015261092e81610815565b9050919050565b6000602082019050818103600083015261094e81610838565b9050919050565b6000602082019050818103600083015261096e8161085b565b9050919050565b6000602082019050818103600083015261098e8161087e565b9050919050565b600081905092915050565b600082825260208201905092915050565b60006109bc82610ac4565b91506109c783610ac4565b9250827fffffffffffffffffffffffffffffffffffffffffffffffffffffffffffffffff038211156109fc576109fb610add565b5b828201905092915050565b6000610a1282610ac4565b9150610a1d83610ac4565b925082610a2d57610a2c610b0c565b5b828204905092915050565b6000610a4382610ac4565b9150610a4e83610ac4565b9250817fffffffffffffffffffffffffffffffffffffffffffffffffffffffffffffffff0483118215151615610a8757610a86610add565b5b828202905092915050565b6000610a9d82610aa4565b9050919050565b600073ffffffffffffffffffffffffffffffffffffffff82169050919050565b6000819050919050565b82818337600083830152505050565b7f4e487b7100000000000000000000000000000000000000000000000000000000600052601160045260246000fd5b7f4e487b7100000000000000000000000000000000000000000000000000000000600052601260045260246000fd5b7f5941573030330000000000000000000000000000000000000000000000000000600082015250565b7f5941573030340000000000000000000000000000000000000000000000000000600082015250565b7f5941573030350000000000000000000000000000000000000000000000000000600082015250565b7f5265656e7472616e637947756172643a207265656e7472616e742063616c6c00600082015250565b7f5941573030310000000000000000000000000000000000000000000000000000600082015250565b7f5941573030320000000000000000000000000000000000000000000000000000600082015250565b610c3a81610a92565b8114610c4557600080fd5b50565b610c5181610ac4565b8114610c5c57600080fd5b5056fea264697066735822122019cefcddfc08be00570663a25913cf4b70e693926903b439d6ff15c25029cd4464736f6c63430008040033",
  "linkReferences": {},
  "deployedLinkReferences": {}
}