{
  "address": "0x5FcbC0DD3ff625E64b9cC4337641e4861a1e791E",
  "abi": [
    {
      "inputs": [],
      "stateMutability": "nonpayable",
      "type": "constructor"
    },
    {
      "anonymous": false,
      "inputs": [
        {
          "indexed": true,
          "internalType": "address",
          "name": "owner",
          "type": "address"
        },
        {
          "indexed": true,
          "internalType": "address",
          "name": "approved",
          "type": "address"
        },
        {
          "indexed": true,
          "internalType": "uint256",
          "name": "tokenId",
          "type": "uint256"
        }
      ],
      "name": "Approval",
      "type": "event"
    },
    {
      "anonymous": false,
      "inputs": [
        {
          "indexed": true,
          "internalType": "address",
          "name": "owner",
          "type": "address"
        },
        {
          "indexed": true,
          "internalType": "address",
          "name": "operator",
          "type": "address"
        },
        {
          "indexed": false,
          "internalType": "bool",
          "name": "approved",
          "type": "bool"
        }
      ],
      "name": "ApprovalForAll",
      "type": "event"
    },
    {
      "anonymous": false,
      "inputs": [
        {
          "indexed": true,
          "internalType": "address",
          "name": "from",
          "type": "address"
        },
        {
          "indexed": true,
          "internalType": "address",
          "name": "to",
          "type": "address"
        },
        {
          "indexed": true,
          "internalType": "uint256",
          "name": "tokenId",
          "type": "uint256"
        }
      ],
      "name": "Transfer",
      "type": "event"
    },
    {
      "inputs": [
        {
          "internalType": "address",
          "name": "to",
          "type": "address"
        },
        {
          "internalType": "uint256",
          "name": "tokenId",
          "type": "uint256"
        }
      ],
      "name": "approve",
      "outputs": [],
      "stateMutability": "nonpayable",
      "type": "function"
    },
    {
      "inputs": [
        {
          "internalType": "address",
          "name": "owner",
          "type": "address"
        }
      ],
      "name": "balanceOf",
      "outputs": [
        {
          "internalType": "uint256",
          "name": "",
          "type": "uint256"
        }
      ],
      "stateMutability": "view",
      "type": "function"
    },
    {
      "inputs": [],
      "name": "baseTokenURI",
      "outputs": [
        {
          "internalType": "string",
          "name": "",
          "type": "string"
        }
      ],
      "stateMutability": "view",
      "type": "function"
    },
    {
      "inputs": [
        {
          "internalType": "uint256",
          "name": "tokenId",
          "type": "uint256"
        }
      ],
      "name": "getApproved",
      "outputs": [
        {
          "internalType": "address",
          "name": "",
          "type": "address"
        }
      ],
      "stateMutability": "view",
      "type": "function"
    },
    {
      "inputs": [
        {
          "internalType": "address",
          "name": "owner",
          "type": "address"
        },
        {
          "internalType": "address",
          "name": "operator",
          "type": "address"
        }
      ],
      "name": "isApprovedForAll",
      "outputs": [
        {
          "internalType": "bool",
          "name": "",
          "type": "bool"
        }
      ],
      "stateMutability": "view",
      "type": "function"
    },
    {
      "inputs": [
        {
          "internalType": "address",
          "name": "recipient",
          "type": "address"
        }
      ],
      "name": "mintTo",
      "outputs": [
        {
          "internalType": "uint256",
          "name": "",
          "type": "uint256"
        }
      ],
      "stateMutability": "nonpayable",
      "type": "function"
    },
    {
      "inputs": [],
      "name": "name",
      "outputs": [
        {
          "internalType": "string",
          "name": "",
          "type": "string"
        }
      ],
      "stateMutability": "view",
      "type": "function"
    },
    {
      "inputs": [
        {
          "internalType": "uint256",
          "name": "tokenId",
          "type": "uint256"
        }
      ],
      "name": "ownerOf",
      "outputs": [
        {
          "internalType": "address",
          "name": "",
          "type": "address"
        }
      ],
      "stateMutability": "view",
      "type": "function"
    },
    {
      "inputs": [
        {
          "internalType": "address",
          "name": "from",
          "type": "address"
        },
        {
          "internalType": "address",
          "name": "to",
          "type": "address"
        },
        {
          "internalType": "uint256",
          "name": "tokenId",
          "type": "uint256"
        }
      ],
      "name": "safeTransferFrom",
      "outputs": [],
      "stateMutability": "nonpayable",
      "type": "function"
    },
    {
      "inputs": [
        {
          "internalType": "address",
          "name": "from",
          "type": "address"
        },
        {
          "internalType": "address",
          "name": "to",
          "type": "address"
        },
        {
          "internalType": "uint256",
          "name": "tokenId",
          "type": "uint256"
        },
        {
          "internalType": "bytes",
          "name": "data",
          "type": "bytes"
        }
      ],
      "name": "safeTransferFrom",
      "outputs": [],
      "stateMutability": "nonpayable",
      "type": "function"
    },
    {
      "inputs": [
        {
          "internalType": "address",
          "name": "operator",
          "type": "address"
        },
        {
          "internalType": "bool",
          "name": "approved",
          "type": "bool"
        }
      ],
      "name": "setApprovalForAll",
      "outputs": [],
      "stateMutability": "nonpayable",
      "type": "function"
    },
    {
      "inputs": [
        {
          "internalType": "string",
          "name": "_baseTokenURI",
          "type": "string"
        }
      ],
      "name": "setBaseTokenURI",
      "outputs": [],
      "stateMutability": "nonpayable",
      "type": "function"
    },
    {
      "inputs": [
        {
          "internalType": "bytes4",
          "name": "interfaceId",
          "type": "bytes4"
        }
      ],
      "name": "supportsInterface",
      "outputs": [
        {
          "internalType": "bool",
          "name": "",
          "type": "bool"
        }
      ],
      "stateMutability": "view",
      "type": "function"
    },
    {
      "inputs": [],
      "name": "symbol",
      "outputs": [
        {
          "internalType": "string",
          "name": "",
          "type": "string"
        }
      ],
      "stateMutability": "view",
      "type": "function"
    },
    {
      "inputs": [
        {
          "internalType": "uint256",
          "name": "tokenId",
          "type": "uint256"
        }
      ],
      "name": "tokenURI",
      "outputs": [
        {
          "internalType": "string",
          "name": "",
          "type": "string"
        }
      ],
      "stateMutability": "view",
      "type": "function"
    },
    {
      "inputs": [
        {
          "internalType": "address",
          "name": "from",
          "type": "address"
        },
        {
          "internalType": "address",
          "name": "to",
          "type": "address"
        },
        {
          "internalType": "uint256",
          "name": "tokenId",
          "type": "uint256"
        }
      ],
      "name": "transferFrom",
      "outputs": [],
      "stateMutability": "nonpayable",
      "type": "function"
    }
  ],
  "transactionHash": "0x8aab1f934a3462bf40c9e784c1dc0bacb28f78a9db709a97a3e1141a175cc4ff",
  "args": [],
  "numDeployments": 5,
  "solcInputHash": "64bb67754460abb052674cd8b44fd0cf",
  "bytecode": "0x60806040523480156200001157600080fd5b506040518060400160405280600a81526020017f4865786c696e6b4e4654000000000000000000000000000000000000000000008152506040518060400160405280600681526020017f4845584e46540000000000000000000000000000000000000000000000000000815250816000908051906020019062000096929190620000ea565b508060019080519060200190620000af929190620000ea565b5050506040518060800160405280605c815260200162002a35605c913960079080519060200190620000e3929190620000ea565b50620001ff565b828054620000f8906200019a565b90600052602060002090601f0160209004810192826200011c576000855562000168565b82601f106200013757805160ff191683800117855562000168565b8280016001018555821562000168579182015b82811115620001675782518255916020019190600101906200014a565b5b5090506200017791906200017b565b5090565b5b80821115620001965760008160009055506001016200017c565b5090565b60006002820490506001821680620001b357607f821691505b60208210811415620001ca57620001c9620001d0565b5b50919050565b7f4e487b7100000000000000000000000000000000000000000000000000000000600052602260045260246000fd5b612826806200020f6000396000f3fe608060405234801561001057600080fd5b50600436106101005760003560e01c806370a0823111610097578063b88d4fde11610066578063b88d4fde146102bd578063c87b56dd146102d9578063d547cfb714610309578063e985e9c51461032757610100565b806370a0823114610223578063755edd171461025357806395d89b4114610283578063a22cb465146102a157610100565b806323b872dd116100d357806323b872dd1461019f57806330176e13146101bb57806342842e0e146101d75780636352211e146101f357610100565b806301ffc9a71461010557806306fdde0314610135578063081812fc14610153578063095ea7b314610183575b600080fd5b61011f600480360381019061011a9190611b92565b610357565b60405161012c9190611f2a565b60405180910390f35b61013d610439565b60405161014a9190611f45565b60405180910390f35b61016d60048036038101906101689190611c25565b6104cb565b60405161017a9190611ec3565b60405180910390f35b61019d60048036038101906101989190611b56565b610511565b005b6101b960048036038101906101b49190611a50565b610629565b005b6101d560048036038101906101d09190611be4565b610689565b005b6101f160048036038101906101ec9190611a50565b6106a3565b005b61020d60048036038101906102089190611c25565b6106c3565b60405161021a9190611ec3565b60405180910390f35b61023d600480360381019061023891906119eb565b610775565b60405161024a91906120c7565b60405180910390f35b61026d600480360381019061026891906119eb565b61082d565b60405161027a91906120c7565b60405180910390f35b61028b61085a565b6040516102989190611f45565b60405180910390f35b6102bb60048036038101906102b69190611b1a565b6108ec565b005b6102d760048036038101906102d29190611a9f565b610902565b005b6102f360048036038101906102ee9190611c25565b610964565b6040516103009190611f45565b60405180910390f35b6103116109cc565b60405161031e9190611f45565b60405180910390f35b610341600480360381019061033c9190611a14565b610a5a565b60405161034e9190611f2a565b60405180910390f35b60007f80ac58cd000000000000000000000000000000000000000000000000000000007bffffffffffffffffffffffffffffffffffffffffffffffffffffffff1916827bffffffffffffffffffffffffffffffffffffffffffffffffffffffff1916148061042257507f5b5e139f000000000000000000000000000000000000000000000000000000007bffffffffffffffffffffffffffffffffffffffffffffffffffffffff1916827bffffffffffffffffffffffffffffffffffffffffffffffffffffffff1916145b80610432575061043182610aee565b5b9050919050565b6060600080546104489061231d565b80601f01602080910402602001604051908101604052809291908181526020018280546104749061231d565b80156104c15780601f10610496576101008083540402835291602001916104c1565b820191906000526020600020905b8154815290600101906020018083116104a457829003601f168201915b5050505050905090565b60006104d682610b58565b6004600083815260200190815260200160002060009054906101000a900473ffffffffffffffffffffffffffffffffffffffff169050919050565b600061051c826106c3565b90508073ffffffffffffffffffffffffffffffffffffffff168373ffffffffffffffffffffffffffffffffffffffff16141561058d576040517f08c379a000000000000000000000000000000000000000000000000000000000815260040161058490612087565b60405180910390fd5b8073ffffffffffffffffffffffffffffffffffffffff166105ac610ba3565b73ffffffffffffffffffffffffffffffffffffffff1614806105db57506105da816105d5610ba3565b610a5a565b5b61061a576040517f08c379a000000000000000000000000000000000000000000000000000000000815260040161061190612027565b60405180910390fd5b6106248383610bab565b505050565b61063a610634610ba3565b82610c64565b610679576040517f08c379a0000000000000000000000000000000000000000000000000000000008152600401610670906120a7565b60405180910390fd5b610684838383610cf9565b505050565b806007908051906020019061069f92919061180f565b5050565b6106be83838360405180602001604052806000815250610902565b505050565b6000806002600084815260200190815260200160002060009054906101000a900473ffffffffffffffffffffffffffffffffffffffff169050600073ffffffffffffffffffffffffffffffffffffffff168173ffffffffffffffffffffffffffffffffffffffff16141561076c576040517f08c379a000000000000000000000000000000000000000000000000000000000815260040161076390612067565b60405180910390fd5b80915050919050565b60008073ffffffffffffffffffffffffffffffffffffffff168273ffffffffffffffffffffffffffffffffffffffff1614156107e6576040517f08c379a00000000000000000000000000000000000000000000000000000000081526004016107dd90612007565b60405180910390fd5b600360008373ffffffffffffffffffffffffffffffffffffffff1673ffffffffffffffffffffffffffffffffffffffff168152602001908152602001600020549050919050565b60006108396006610f60565b60006108456006610f76565b90506108518382610f84565b80915050919050565b6060600180546108699061231d565b80601f01602080910402602001604051908101604052809291908181526020018280546108959061231d565b80156108e25780601f106108b7576101008083540402835291602001916108e2565b820191906000526020600020905b8154815290600101906020018083116108c557829003601f168201915b5050505050905090565b6108fe6108f7610ba3565b8383610fa2565b5050565b61091361090d610ba3565b83610c64565b610952576040517f08c379a0000000000000000000000000000000000000000000000000000000008152600401610949906120a7565b60405180910390fd5b61095e8484848461110f565b50505050565b606061096f82610b58565b600061097961116b565b9050600081511161099957604051806020016040528060008152506109c4565b806109a3846111fd565b6040516020016109b4929190611e9f565b6040516020818303038152906040525b915050919050565b600780546109d99061231d565b80601f0160208091040260200160405190810160405280929190818152602001828054610a059061231d565b8015610a525780601f10610a2757610100808354040283529160200191610a52565b820191906000526020600020905b815481529060010190602001808311610a3557829003601f168201915b505050505081565b6000600560008473ffffffffffffffffffffffffffffffffffffffff1673ffffffffffffffffffffffffffffffffffffffff16815260200190815260200160002060008373ffffffffffffffffffffffffffffffffffffffff1673ffffffffffffffffffffffffffffffffffffffff16815260200190815260200160002060009054906101000a900460ff16905092915050565b60007f01ffc9a7000000000000000000000000000000000000000000000000000000007bffffffffffffffffffffffffffffffffffffffffffffffffffffffff1916827bffffffffffffffffffffffffffffffffffffffffffffffffffffffff1916149050919050565b610b61816113aa565b610ba0576040517f08c379a0000000000000000000000000000000000000000000000000000000008152600401610b9790612067565b60405180910390fd5b50565b600033905090565b816004600083815260200190815260200160002060006101000a81548173ffffffffffffffffffffffffffffffffffffffff021916908373ffffffffffffffffffffffffffffffffffffffff160217905550808273ffffffffffffffffffffffffffffffffffffffff16610c1e836106c3565b73ffffffffffffffffffffffffffffffffffffffff167f8c5be1e5ebec7d5bd14f71427d1e84f3dd0314c0f7b2291e5b200ac8c7c3b92560405160405180910390a45050565b600080610c70836106c3565b90508073ffffffffffffffffffffffffffffffffffffffff168473ffffffffffffffffffffffffffffffffffffffff161480610cb25750610cb18185610a5a565b5b80610cf057508373ffffffffffffffffffffffffffffffffffffffff16610cd8846104cb565b73ffffffffffffffffffffffffffffffffffffffff16145b91505092915050565b8273ffffffffffffffffffffffffffffffffffffffff16610d19826106c3565b73ffffffffffffffffffffffffffffffffffffffff1614610d6f576040517f08c379a0000000000000000000000000000000000000000000000000000000008152600401610d6690611f87565b60405180910390fd5b600073ffffffffffffffffffffffffffffffffffffffff168273ffffffffffffffffffffffffffffffffffffffff161415610ddf576040517f08c379a0000000000000000000000000000000000000000000000000000000008152600401610dd690611fc7565b60405180910390fd5b610dea838383611416565b610df5600082610bab565b6001600360008573ffffffffffffffffffffffffffffffffffffffff1673ffffffffffffffffffffffffffffffffffffffff1681526020019081526020016000206000828254610e459190612233565b925050819055506001600360008473ffffffffffffffffffffffffffffffffffffffff1673ffffffffffffffffffffffffffffffffffffffff1681526020019081526020016000206000828254610e9c91906121ac565b92505081905550816002600083815260200190815260200160002060006101000a81548173ffffffffffffffffffffffffffffffffffffffff021916908373ffffffffffffffffffffffffffffffffffffffff160217905550808273ffffffffffffffffffffffffffffffffffffffff168473ffffffffffffffffffffffffffffffffffffffff167fddf252ad1be2c89b69c2b068fc378daa952ba7f163c4a11628f55a4df523b3ef60405160405180910390a4610f5b83838361141b565b505050565b6001816000016000828254019250508190555050565b600081600001549050919050565b610f9e828260405180602001604052806000815250611420565b5050565b8173ffffffffffffffffffffffffffffffffffffffff168373ffffffffffffffffffffffffffffffffffffffff161415611011576040517f08c379a000000000000000000000000000000000000000000000000000000000815260040161100890611fe7565b60405180910390fd5b80600560008573ffffffffffffffffffffffffffffffffffffffff1673ffffffffffffffffffffffffffffffffffffffff16815260200190815260200160002060008473ffffffffffffffffffffffffffffffffffffffff1673ffffffffffffffffffffffffffffffffffffffff16815260200190815260200160002060006101000a81548160ff0219169083151502179055508173ffffffffffffffffffffffffffffffffffffffff168373ffffffffffffffffffffffffffffffffffffffff167f17307eab39ab6107e8899845ad3d59bd9653f200f220920489ca2b5937696c31836040516111029190611f2a565b60405180910390a3505050565b61111a848484610cf9565b6111268484848461147b565b611165576040517f08c379a000000000000000000000000000000000000000000000000000000000815260040161115c90611f67565b60405180910390fd5b50505050565b60606007805461117a9061231d565b80601f01602080910402602001604051908101604052809291908181526020018280546111a69061231d565b80156111f35780601f106111c8576101008083540402835291602001916111f3565b820191906000526020600020905b8154815290600101906020018083116111d657829003601f168201915b5050505050905090565b60606000821415611245576040518060400160405280600181526020017f300000000000000000000000000000000000000000000000000000000000000081525090506113a5565b600082905060005b6000821461127757808061126090612380565b915050600a826112709190612202565b915061124d565b60008167ffffffffffffffff8111156112b9577f4e487b7100000000000000000000000000000000000000000000000000000000600052604160045260246000fd5b6040519080825280601f01601f1916602001820160405280156112eb5781602001600182028036833780820191505090505b5090505b6000851461139e576001826113049190612233565b9150600a8561131391906123c9565b603061131f91906121ac565b60f81b81838151811061135b577f4e487b7100000000000000000000000000000000000000000000000000000000600052603260045260246000fd5b60200101907effffffffffffffffffffffffffffffffffffffffffffffffffffffffffffff1916908160001a905350600a856113979190612202565b94506112ef565b8093505050505b919050565b60008073ffffffffffffffffffffffffffffffffffffffff166002600084815260200190815260200160002060009054906101000a900473ffffffffffffffffffffffffffffffffffffffff1673ffffffffffffffffffffffffffffffffffffffff1614159050919050565b505050565b505050565b61142a8383611612565b611437600084848461147b565b611476576040517f08c379a000000000000000000000000000000000000000000000000000000000815260040161146d90611f67565b60405180910390fd5b505050565b600061149c8473ffffffffffffffffffffffffffffffffffffffff166117ec565b15611605578373ffffffffffffffffffffffffffffffffffffffff1663150b7a026114c5610ba3565b8786866040518563ffffffff1660e01b81526004016114e79493929190611ede565b602060405180830381600087803b15801561150157600080fd5b505af192505050801561153257506040513d601f19601f8201168201806040525081019061152f9190611bbb565b60015b6115b5573d8060008114611562576040519150601f19603f3d011682016040523d82523d6000602084013e611567565b606091505b506000815114156115ad576040517f08c379a00000000000000000000000000000000000000000000000000000000081526004016115a490611f67565b60405180910390fd5b805181602001fd5b63150b7a0260e01b7bffffffffffffffffffffffffffffffffffffffffffffffffffffffff1916817bffffffffffffffffffffffffffffffffffffffffffffffffffffffff19161491505061160a565b600190505b949350505050565b600073ffffffffffffffffffffffffffffffffffffffff168273ffffffffffffffffffffffffffffffffffffffff161415611682576040517f08c379a000000000000000000000000000000000000000000000000000000000815260040161167990612047565b60405180910390fd5b61168b816113aa565b156116cb576040517f08c379a00000000000000000000000000000000000000000000000000000000081526004016116c290611fa7565b60405180910390fd5b6116d760008383611416565b6001600360008473ffffffffffffffffffffffffffffffffffffffff1673ffffffffffffffffffffffffffffffffffffffff168152602001908152602001600020600082825461172791906121ac565b92505081905550816002600083815260200190815260200160002060006101000a81548173ffffffffffffffffffffffffffffffffffffffff021916908373ffffffffffffffffffffffffffffffffffffffff160217905550808273ffffffffffffffffffffffffffffffffffffffff16600073ffffffffffffffffffffffffffffffffffffffff167fddf252ad1be2c89b69c2b068fc378daa952ba7f163c4a11628f55a4df523b3ef60405160405180910390a46117e86000838361141b565b5050565b6000808273ffffffffffffffffffffffffffffffffffffffff163b119050919050565b82805461181b9061231d565b90600052602060002090601f01602090048101928261183d5760008555611884565b82601f1061185657805160ff1916838001178555611884565b82800160010185558215611884579182015b82811115611883578251825591602001919060010190611868565b5b5090506118919190611895565b5090565b5b808211156118ae576000816000905550600101611896565b5090565b60006118c56118c084612107565b6120e2565b9050828152602081018484840111156118dd57600080fd5b6118e88482856122db565b509392505050565b60006119036118fe84612138565b6120e2565b90508281526020810184848401111561191b57600080fd5b6119268482856122db565b509392505050565b60008135905061193d81612794565b92915050565b600081359050611952816127ab565b92915050565b600081359050611967816127c2565b92915050565b60008151905061197c816127c2565b92915050565b600082601f83011261199357600080fd5b81356119a38482602086016118b2565b91505092915050565b600082601f8301126119bd57600080fd5b81356119cd8482602086016118f0565b91505092915050565b6000813590506119e5816127d9565b92915050565b6000602082840312156119fd57600080fd5b6000611a0b8482850161192e565b91505092915050565b60008060408385031215611a2757600080fd5b6000611a358582860161192e565b9250506020611a468582860161192e565b9150509250929050565b600080600060608486031215611a6557600080fd5b6000611a738682870161192e565b9350506020611a848682870161192e565b9250506040611a95868287016119d6565b9150509250925092565b60008060008060808587031215611ab557600080fd5b6000611ac38782880161192e565b9450506020611ad48782880161192e565b9350506040611ae5878288016119d6565b925050606085013567ffffffffffffffff811115611b0257600080fd5b611b0e87828801611982565b91505092959194509250565b60008060408385031215611b2d57600080fd5b6000611b3b8582860161192e565b9250506020611b4c85828601611943565b9150509250929050565b60008060408385031215611b6957600080fd5b6000611b778582860161192e565b9250506020611b88858286016119d6565b9150509250929050565b600060208284031215611ba457600080fd5b6000611bb284828501611958565b91505092915050565b600060208284031215611bcd57600080fd5b6000611bdb8482850161196d565b91505092915050565b600060208284031215611bf657600080fd5b600082013567ffffffffffffffff811115611c1057600080fd5b611c1c848285016119ac565b91505092915050565b600060208284031215611c3757600080fd5b6000611c45848285016119d6565b91505092915050565b611c5781612267565b82525050565b611c6681612279565b82525050565b6000611c7782612169565b611c81818561217f565b9350611c918185602086016122ea565b611c9a816124b6565b840191505092915050565b6000611cb082612174565b611cba8185612190565b9350611cca8185602086016122ea565b611cd3816124b6565b840191505092915050565b6000611ce982612174565b611cf381856121a1565b9350611d038185602086016122ea565b80840191505092915050565b6000611d1c603283612190565b9150611d27826124c7565b604082019050919050565b6000611d3f602583612190565b9150611d4a82612516565b604082019050919050565b6000611d62601c83612190565b9150611d6d82612565565b602082019050919050565b6000611d85602483612190565b9150611d908261258e565b604082019050919050565b6000611da8601983612190565b9150611db3826125dd565b602082019050919050565b6000611dcb602983612190565b9150611dd682612606565b604082019050919050565b6000611dee603e83612190565b9150611df982612655565b604082019050919050565b6000611e11602083612190565b9150611e1c826126a4565b602082019050919050565b6000611e34601883612190565b9150611e3f826126cd565b602082019050919050565b6000611e57602183612190565b9150611e62826126f6565b604082019050919050565b6000611e7a602e83612190565b9150611e8582612745565b604082019050919050565b611e99816122d1565b82525050565b6000611eab8285611cde565b9150611eb78284611cde565b91508190509392505050565b6000602082019050611ed86000830184611c4e565b92915050565b6000608082019050611ef36000830187611c4e565b611f006020830186611c4e565b611f0d6040830185611e90565b8181036060830152611f1f8184611c6c565b905095945050505050565b6000602082019050611f3f6000830184611c5d565b92915050565b60006020820190508181036000830152611f5f8184611ca5565b905092915050565b60006020820190508181036000830152611f8081611d0f565b9050919050565b60006020820190508181036000830152611fa081611d32565b9050919050565b60006020820190508181036000830152611fc081611d55565b9050919050565b60006020820190508181036000830152611fe081611d78565b9050919050565b6000602082019050818103600083015261200081611d9b565b9050919050565b6000602082019050818103600083015261202081611dbe565b9050919050565b6000602082019050818103600083015261204081611de1565b9050919050565b6000602082019050818103600083015261206081611e04565b9050919050565b6000602082019050818103600083015261208081611e27565b9050919050565b600060208201905081810360008301526120a081611e4a565b9050919050565b600060208201905081810360008301526120c081611e6d565b9050919050565b60006020820190506120dc6000830184611e90565b92915050565b60006120ec6120fd565b90506120f8828261234f565b919050565b6000604051905090565b600067ffffffffffffffff82111561212257612121612487565b5b61212b826124b6565b9050602081019050919050565b600067ffffffffffffffff82111561215357612152612487565b5b61215c826124b6565b9050602081019050919050565b600081519050919050565b600081519050919050565b600082825260208201905092915050565b600082825260208201905092915050565b600081905092915050565b60006121b7826122d1565b91506121c2836122d1565b9250827fffffffffffffffffffffffffffffffffffffffffffffffffffffffffffffffff038211156121f7576121f66123fa565b5b828201905092915050565b600061220d826122d1565b9150612218836122d1565b92508261222857612227612429565b5b828204905092915050565b600061223e826122d1565b9150612249836122d1565b92508282101561225c5761225b6123fa565b5b828203905092915050565b6000612272826122b1565b9050919050565b60008115159050919050565b60007fffffffff0000000000000000000000000000000000000000000000000000000082169050919050565b600073ffffffffffffffffffffffffffffffffffffffff82169050919050565b6000819050919050565b82818337600083830152505050565b60005b838110156123085780820151818401526020810190506122ed565b83811115612317576000848401525b50505050565b6000600282049050600182168061233557607f821691505b6020821081141561234957612348612458565b5b50919050565b612358826124b6565b810181811067ffffffffffffffff8211171561237757612376612487565b5b80604052505050565b600061238b826122d1565b91507fffffffffffffffffffffffffffffffffffffffffffffffffffffffffffffffff8214156123be576123bd6123fa565b5b600182019050919050565b60006123d4826122d1565b91506123df836122d1565b9250826123ef576123ee612429565b5b828206905092915050565b7f4e487b7100000000000000000000000000000000000000000000000000000000600052601160045260246000fd5b7f4e487b7100000000000000000000000000000000000000000000000000000000600052601260045260246000fd5b7f4e487b7100000000000000000000000000000000000000000000000000000000600052602260045260246000fd5b7f4e487b7100000000000000000000000000000000000000000000000000000000600052604160045260246000fd5b6000601f19601f8301169050919050565b7f4552433732313a207472616e7366657220746f206e6f6e20455243373231526560008201527f63656976657220696d706c656d656e7465720000000000000000000000000000602082015250565b7f4552433732313a207472616e736665722066726f6d20696e636f72726563742060008201527f6f776e6572000000000000000000000000000000000000000000000000000000602082015250565b7f4552433732313a20746f6b656e20616c7265616479206d696e74656400000000600082015250565b7f4552433732313a207472616e7366657220746f20746865207a65726f2061646460008201527f7265737300000000000000000000000000000000000000000000000000000000602082015250565b7f4552433732313a20617070726f766520746f2063616c6c657200000000000000600082015250565b7f4552433732313a2061646472657373207a65726f206973206e6f74206120766160008201527f6c6964206f776e65720000000000000000000000000000000000000000000000602082015250565b7f4552433732313a20617070726f76652063616c6c6572206973206e6f7420746f60008201527f6b656e206f776e6572206e6f7220617070726f76656420666f7220616c6c0000602082015250565b7f4552433732313a206d696e7420746f20746865207a65726f2061646472657373600082015250565b7f4552433732313a20696e76616c696420746f6b656e2049440000000000000000600082015250565b7f4552433732313a20617070726f76616c20746f2063757272656e74206f776e6560008201527f7200000000000000000000000000000000000000000000000000000000000000602082015250565b7f4552433732313a2063616c6c6572206973206e6f7420746f6b656e206f776e6560008201527f72206e6f7220617070726f766564000000000000000000000000000000000000602082015250565b61279d81612267565b81146127a857600080fd5b50565b6127b481612279565b81146127bf57600080fd5b50565b6127cb81612285565b81146127d657600080fd5b50565b6127e2816122d1565b81146127ed57600080fd5b5056fea26469706673582212206b6a6287f0177817d228b15a10c5a1122aaa1ca25e82e78956528cf5ddf8f5ef64736f6c6343000804003368747470733a2f2f62616679626569676869703464616e33627a7161756863646d77747068616b6563776a7a7a726577776732357133647733657161647673687432752e697066732e647765622e6c696e6b2f6d657461646174612f",
  "devdoc": {
    "kind": "dev",
    "methods": {
      "approve(address,uint256)": {
        "details": "See {IERC721-approve}."
      },
      "balanceOf(address)": {
        "details": "See {IERC721-balanceOf}."
      },
      "getApproved(uint256)": {
        "details": "See {IERC721-getApproved}."
      },
      "isApprovedForAll(address,address)": {
        "details": "See {IERC721-isApprovedForAll}."
      },
      "name()": {
        "details": "See {IERC721Metadata-name}."
      },
      "ownerOf(uint256)": {
        "details": "See {IERC721-ownerOf}."
      },
      "safeTransferFrom(address,address,uint256)": {
        "details": "See {IERC721-safeTransferFrom}."
      },
      "safeTransferFrom(address,address,uint256,bytes)": {
        "details": "See {IERC721-safeTransferFrom}."
      },
      "setApprovalForAll(address,bool)": {
        "details": "See {IERC721-setApprovalForAll}."
      },
      "setBaseTokenURI(string)": {
        "details": "Sets the base token URI prefix."
      },
      "supportsInterface(bytes4)": {
        "details": "See {IERC165-supportsInterface}."
      },
      "symbol()": {
        "details": "See {IERC721Metadata-symbol}."
      },
      "tokenURI(uint256)": {
        "details": "See {IERC721Metadata-tokenURI}."
      },
      "transferFrom(address,address,uint256)": {
        "details": "See {IERC721-transferFrom}."
      }
    },
    "stateVariables": {
      "baseTokenURI": {
        "details": "Base token URI used as a prefix by tokenURI()."
      }
    },
    "version": 1
  },
  "userdoc": {
    "kind": "user",
    "methods": {},
    "version": 1
  },
  "storageLayout": {
    "storage": [
      {
        "astId": 25,
        "contract": "contracts/HexlinkNFT.sol:HexlinkNFT",
        "label": "_name",
        "offset": 0,
        "slot": "0",
        "type": "t_string_storage"
      },
      {
        "astId": 27,
        "contract": "contracts/HexlinkNFT.sol:HexlinkNFT",
        "label": "_symbol",
        "offset": 0,
        "slot": "1",
        "type": "t_string_storage"
      },
      {
        "astId": 31,
        "contract": "contracts/HexlinkNFT.sol:HexlinkNFT",
        "label": "_owners",
        "offset": 0,
        "slot": "2",
        "type": "t_mapping(t_uint256,t_address)"
      },
      {
        "astId": 35,
        "contract": "contracts/HexlinkNFT.sol:HexlinkNFT",
        "label": "_balances",
        "offset": 0,
        "slot": "3",
        "type": "t_mapping(t_address,t_uint256)"
      },
      {
        "astId": 39,
        "contract": "contracts/HexlinkNFT.sol:HexlinkNFT",
        "label": "_tokenApprovals",
        "offset": 0,
        "slot": "4",
        "type": "t_mapping(t_uint256,t_address)"
      },
      {
        "astId": 45,
        "contract": "contracts/HexlinkNFT.sol:HexlinkNFT",
        "label": "_operatorApprovals",
        "offset": 0,
        "slot": "5",
        "type": "t_mapping(t_address,t_mapping(t_address,t_bool))"
      },
      {
        "astId": 1693,
        "contract": "contracts/HexlinkNFT.sol:HexlinkNFT",
        "label": "currentTokenId",
        "offset": 0,
        "slot": "6",
        "type": "t_struct(Counter)1350_storage"
      },
      {
        "astId": 1696,
        "contract": "contracts/HexlinkNFT.sol:HexlinkNFT",
        "label": "baseTokenURI",
        "offset": 0,
        "slot": "7",
        "type": "t_string_storage"
      }
    ],
    "types": {
      "t_address": {
        "encoding": "inplace",
        "label": "address",
        "numberOfBytes": "20"
      },
      "t_bool": {
        "encoding": "inplace",
        "label": "bool",
        "numberOfBytes": "1"
      },
      "t_mapping(t_address,t_bool)": {
        "encoding": "mapping",
        "key": "t_address",
        "label": "mapping(address => bool)",
        "numberOfBytes": "32",
        "value": "t_bool"
      },
      "t_mapping(t_address,t_mapping(t_address,t_bool))": {
        "encoding": "mapping",
        "key": "t_address",
        "label": "mapping(address => mapping(address => bool))",
        "numberOfBytes": "32",
        "value": "t_mapping(t_address,t_bool)"
      },
      "t_mapping(t_address,t_uint256)": {
        "encoding": "mapping",
        "key": "t_address",
        "label": "mapping(address => uint256)",
        "numberOfBytes": "32",
        "value": "t_uint256"
      },
      "t_mapping(t_uint256,t_address)": {
        "encoding": "mapping",
        "key": "t_uint256",
        "label": "mapping(uint256 => address)",
        "numberOfBytes": "32",
        "value": "t_address"
      },
      "t_string_storage": {
        "encoding": "bytes",
        "label": "string",
        "numberOfBytes": "32"
      },
      "t_struct(Counter)1350_storage": {
        "encoding": "inplace",
        "label": "struct Counters.Counter",
        "members": [
          {
            "astId": 1349,
            "contract": "contracts/HexlinkNFT.sol:HexlinkNFT",
            "label": "_value",
            "offset": 0,
            "slot": "0",
            "type": "t_uint256"
          }
        ],
        "numberOfBytes": "32"
      },
      "t_uint256": {
        "encoding": "inplace",
        "label": "uint256",
        "numberOfBytes": "32"
      }
    }
  }
}