{
  "address": "0x463972853E1990406732d6e4f5a2039dc620E14A",
  "abi": [
    {
      "inputs": [],
      "stateMutability": "nonpayable",
      "type": "constructor"
    },
    {
      "anonymous": false,
      "inputs": [
        {
          "indexed": true,
          "internalType": "address",
          "name": "previousOwner",
          "type": "address"
        },
        {
          "indexed": true,
          "internalType": "address",
          "name": "newOwner",
          "type": "address"
        }
      ],
      "name": "OwnershipTransferred",
      "type": "event"
    },
    {
      "anonymous": false,
      "inputs": [
        {
          "indexed": true,
          "internalType": "bytes32",
          "name": "nameHash",
          "type": "bytes32"
        },
        {
          "indexed": true,
          "internalType": "address",
          "name": "account",
          "type": "address"
        }
      ],
      "name": "SetAccount",
      "type": "event"
    },
    {
      "inputs": [],
      "name": "accountBase",
      "outputs": [
        {
          "internalType": "address",
          "name": "",
          "type": "address"
        }
      ],
      "stateMutability": "view",
      "type": "function"
    },
    {
      "inputs": [
        {
          "internalType": "bytes32",
          "name": "nameHash",
          "type": "bytes32"
        }
      ],
      "name": "addressOfName",
      "outputs": [
        {
          "internalType": "address",
          "name": "",
          "type": "address"
        }
      ],
      "stateMutability": "view",
      "type": "function"
    },
    {
      "inputs": [
        {
          "internalType": "bytes32",
          "name": "nameHash",
          "type": "bytes32"
        }
      ],
      "name": "deploy",
      "outputs": [],
      "stateMutability": "nonpayable",
      "type": "function"
    },
    {
      "inputs": [],
      "name": "owner",
      "outputs": [
        {
          "internalType": "address",
          "name": "",
          "type": "address"
        }
      ],
      "stateMutability": "view",
      "type": "function"
    },
    {
      "inputs": [],
      "name": "renounceOwnership",
      "outputs": [],
      "stateMutability": "nonpayable",
      "type": "function"
    },
    {
      "inputs": [
        {
          "internalType": "bytes32",
          "name": "nameHash",
          "type": "bytes32"
        }
      ],
      "name": "reset",
      "outputs": [],
      "stateMutability": "nonpayable",
      "type": "function"
    },
    {
      "inputs": [
        {
          "internalType": "address",
          "name": "newOwner",
          "type": "address"
        }
      ],
      "name": "transferOwnership",
      "outputs": [],
      "stateMutability": "nonpayable",
      "type": "function"
    },
    {
      "inputs": [
        {
          "internalType": "bytes32",
          "name": "nameHash",
          "type": "bytes32"
        }
      ],
      "name": "version",
      "outputs": [
        {
          "internalType": "uint256",
          "name": "",
          "type": "uint256"
        }
      ],
      "stateMutability": "view",
      "type": "function"
    }
  ],
  "transactionHash": "0x129a524621d641121a6f3d4b0ad6cfd7814aa1aad7e1059e35f55e8eeb706e0d",
  "args": [],
  "numDeployments": 2,
  "solcInputHash": "704cc41b0f781702488c8a4636efa9b8",
  "bytecode": "0x60a06040523480156200001157600080fd5b506200003262000026620000af60201b60201c565b620000b760201b60201c565b6200007360008060001b604051806020016200004e9062000295565b6020820181038252601f19601f820116604052506200017b60201b620003481760201c565b73ffffffffffffffffffffffffffffffffffffffff1660808173ffffffffffffffffffffffffffffffffffffffff1660601b815250506200040a565b600033905090565b60008060009054906101000a900473ffffffffffffffffffffffffffffffffffffffff169050816000806101000a81548173ffffffffffffffffffffffffffffffffffffffff021916908373ffffffffffffffffffffffffffffffffffffffff1602179055508173ffffffffffffffffffffffffffffffffffffffff168173ffffffffffffffffffffffffffffffffffffffff167f8be0079c531659141344cd1fd0a4f28419497f9722a3daafe3b4186f6b6457e060405160405180910390a35050565b60008084471015620001c4576040517f08c379a0000000000000000000000000000000000000000000000000000000008152600401620001bb906200035c565b60405180910390fd5b6000835114156200020c576040517f08c379a0000000000000000000000000000000000000000000000000000000008152600401620002039062000318565b60405180910390fd5b8383516020850187f59050600073ffffffffffffffffffffffffffffffffffffffff168173ffffffffffffffffffffffffffffffffffffffff1614156200028a576040517f08c379a000000000000000000000000000000000000000000000000000000000815260040162000281906200033a565b60405180910390fd5b809150509392505050565b610ddf806200119683390190565b6000620002b26020836200037e565b9150620002bf826200038f565b602082019050919050565b6000620002d96019836200037e565b9150620002e682620003b8565b602082019050919050565b600062000300601d836200037e565b91506200030d82620003e1565b602082019050919050565b600060208201905081810360008301526200033381620002a3565b9050919050565b600060208201905081810360008301526200035581620002ca565b9050919050565b600060208201905081810360008301526200037781620002f1565b9050919050565b600082825260208201905092915050565b7f437265617465323a2062797465636f6465206c656e677468206973207a65726f600082015250565b7f437265617465323a204661696c6564206f6e206465706c6f7900000000000000600082015250565b7f437265617465323a20696e73756666696369656e742062616c616e6365000000600082015250565b60805160601c610d5f62000437600039600081816101d80152818161023201526104ec0152610d5f6000f3fe608060405234801561001057600080fd5b50600436106100885760003560e01c8063cd6a84b31161005b578063cd6a84b314610101578063ed3c7d401461011f578063f2fde38b1461013b578063fde40cb61461015757610088565b80632b85ba381461008d578063715018a6146100a95780637eaa9c8c146100b35780638da5cb5b146100e3575b600080fd5b6100a760048036038101906100a29190610886565b610187565b005b6100b161019d565b005b6100cd60048036038101906100c89190610886565b6101b1565b6040516100da91906109f9565b60405180910390f35b6100eb610205565b6040516100f891906109f9565b60405180910390f35b61010961022e565b60405161011691906109f9565b60405180910390f35b61013960048036038101906101349190610886565b610256565b005b6101556004803603810190610150919061085d565b6102a7565b005b610171600480360381019061016c9190610886565b61032b565b60405161017e9190610ad4565b60405180910390f35b61018f610459565b61019a8160006104d7565b50565b6101a5610459565b6101af60006105c8565b565b6000806101d183600160008681526020019081526020016000205461068c565b90506101fd7f0000000000000000000000000000000000000000000000000000000000000000826106bf565b915050919050565b60008060009054906101000a900473ffffffffffffffffffffffffffffffffffffffff16905090565b60007f0000000000000000000000000000000000000000000000000000000000000000905090565b61025e610459565b600060018060008481526020019081526020016000205461027f9190610b00565b90508060016000848152602001908152602001600020819055506102a382826104d7565b5050565b6102af610459565b600073ffffffffffffffffffffffffffffffffffffffff168173ffffffffffffffffffffffffffffffffffffffff16141561031f576040517f08c379a000000000000000000000000000000000000000000000000000000000815260040161031690610a34565b60405180910390fd5b610328816105c8565b50565b600060016000838152602001908152602001600020549050919050565b6000808447101561038e576040517f08c379a000000000000000000000000000000000000000000000000000000000815260040161038590610ab4565b60405180910390fd5b6000835114156103d3576040517f08c379a00000000000000000000000000000000000000000000000000000000081526004016103ca90610a14565b60405180910390fd5b8383516020850187f59050600073ffffffffffffffffffffffffffffffffffffffff168173ffffffffffffffffffffffffffffffffffffffff16141561044e576040517f08c379a000000000000000000000000000000000000000000000000000000000815260040161044590610a74565b60405180910390fd5b809150509392505050565b6104616106d4565b73ffffffffffffffffffffffffffffffffffffffff1661047f610205565b73ffffffffffffffffffffffffffffffffffffffff16146104d5576040517f08c379a00000000000000000000000000000000000000000000000000000000081526004016104cc90610a94565b60405180910390fd5b565b60006104e3838361068c565b905060006105117f0000000000000000000000000000000000000000000000000000000000000000836106dc565b90508073ffffffffffffffffffffffffffffffffffffffff16630d009297306040518263ffffffff1660e01b815260040161054c91906109f9565b600060405180830381600087803b15801561056657600080fd5b505af115801561057a573d6000803e3d6000fd5b505050508073ffffffffffffffffffffffffffffffffffffffff16847fcbdd341876786c7241ad12a5ce5ea46739a4ce7b1587d0c216dfa655a98e50a660405160405180910390a350505050565b60008060009054906101000a900473ffffffffffffffffffffffffffffffffffffffff169050816000806101000a81548173ffffffffffffffffffffffffffffffffffffffff021916908373ffffffffffffffffffffffffffffffffffffffff1602179055508173ffffffffffffffffffffffffffffffffffffffff168173ffffffffffffffffffffffffffffffffffffffff167f8be0079c531659141344cd1fd0a4f28419497f9722a3daafe3b4186f6b6457e060405160405180910390a35050565b600082826040516020016106a19291906109cd565b60405160208183030381529060405280519060200120905092915050565b60006106cc8383306107b3565b905092915050565b600033905090565b60006040517f3d602d80600a3d3981f3363d3d373d3d3d363d7300000000000000000000000081528360601b60148201527f5af43d82803e903d91602b57fd5bf300000000000000000000000000000000006028820152826037826000f5915050600073ffffffffffffffffffffffffffffffffffffffff168173ffffffffffffffffffffffffffffffffffffffff1614156107ad576040517f08c379a00000000000000000000000000000000000000000000000000000000081526004016107a490610a54565b60405180910390fd5b92915050565b60006040517f3d602d80600a3d3981f3363d3d373d3d3d363d7300000000000000000000000081528460601b60148201527f5af43d82803e903d91602b57fd5bf3ff0000000000000000000000000000000060288201528260601b603882015283604c82015260378120606c820152605560378201209150509392505050565b60008135905061084281610cfb565b92915050565b60008135905061085781610d12565b92915050565b60006020828403121561086f57600080fd5b600061087d84828501610833565b91505092915050565b60006020828403121561089857600080fd5b60006108a684828501610848565b91505092915050565b6108b881610b56565b82525050565b6108cf6108ca82610b68565b610b9c565b82525050565b60006108e2602083610aef565b91506108ed82610bdf565b602082019050919050565b6000610905602683610aef565b915061091082610c08565b604082019050919050565b6000610928601783610aef565b915061093382610c57565b602082019050919050565b600061094b601983610aef565b915061095682610c80565b602082019050919050565b600061096e602083610aef565b915061097982610ca9565b602082019050919050565b6000610991601d83610aef565b915061099c82610cd2565b602082019050919050565b6109b081610b92565b82525050565b6109c76109c282610b92565b610ba6565b82525050565b60006109d982856108be565b6020820191506109e982846109b6565b6020820191508190509392505050565b6000602082019050610a0e60008301846108af565b92915050565b60006020820190508181036000830152610a2d816108d5565b9050919050565b60006020820190508181036000830152610a4d816108f8565b9050919050565b60006020820190508181036000830152610a6d8161091b565b9050919050565b60006020820190508181036000830152610a8d8161093e565b9050919050565b60006020820190508181036000830152610aad81610961565b9050919050565b60006020820190508181036000830152610acd81610984565b9050919050565b6000602082019050610ae960008301846109a7565b92915050565b600082825260208201905092915050565b6000610b0b82610b92565b9150610b1683610b92565b9250827fffffffffffffffffffffffffffffffffffffffffffffffffffffffffffffffff03821115610b4b57610b4a610bb0565b5b828201905092915050565b6000610b6182610b72565b9050919050565b6000819050919050565b600073ffffffffffffffffffffffffffffffffffffffff82169050919050565b6000819050919050565b6000819050919050565b6000819050919050565b7f4e487b7100000000000000000000000000000000000000000000000000000000600052601160045260246000fd5b7f437265617465323a2062797465636f6465206c656e677468206973207a65726f600082015250565b7f4f776e61626c653a206e6577206f776e657220697320746865207a65726f206160008201527f6464726573730000000000000000000000000000000000000000000000000000602082015250565b7f455243313136373a2063726561746532206661696c6564000000000000000000600082015250565b7f437265617465323a204661696c6564206f6e206465706c6f7900000000000000600082015250565b7f4f776e61626c653a2063616c6c6572206973206e6f7420746865206f776e6572600082015250565b7f437265617465323a20696e73756666696369656e742062616c616e6365000000600082015250565b610d0481610b56565b8114610d0f57600080fd5b50565b610d1b81610b68565b8114610d2657600080fd5b5056fea26469706673582212203e95fea142fa5433564764bddc375797e76c630cb2ea36f6229e182041968cc164736f6c63430008040033608060405234801561001057600080fd5b506001600081905550610db7806100286000396000f3fe6080604052600436106100435760003560e01c80630d009297146100ad57806382916381146100d65780638da5cb5b146100f2578063f2fde38b1461011d5761004a565b3661004a57005b34801561005657600080fd5b5060003660606000357fffffffff000000000000000000000000000000000000000000000000000000001660405160200161009191906109b0565b6040516020818303038152906040529050915050805190602001f35b3480156100b957600080fd5b506100d460048036038101906100cf9190610795565b610146565b005b6100f060048036038101906100eb91906107e7565b610254565b005b3480156100fe57600080fd5b50610107610441565b6040516101149190610995565b60405180910390f35b34801561012957600080fd5b50610144600480360381019061013f9190610795565b610559565b005b600073ffffffffffffffffffffffffffffffffffffffff16600160009054906101000a900473ffffffffffffffffffffffffffffffffffffffff1673ffffffffffffffffffffffffffffffffffffffff161480156101d15750600073ffffffffffffffffffffffffffffffffffffffff168173ffffffffffffffffffffffffffffffffffffffff1614155b610210576040517f08c379a0000000000000000000000000000000000000000000000000000000008152600401610207906109eb565b60405180910390fd5b80600160006101000a81548173ffffffffffffffffffffffffffffffffffffffff021916908373ffffffffffffffffffffffffffffffffffffffff16021790555050565b3373ffffffffffffffffffffffffffffffffffffffff16610273610441565b73ffffffffffffffffffffffffffffffffffffffff16146102c9576040517f08c379a00000000000000000000000000000000000000000000000000000000081526004016102c090610a4b565b60405180910390fd5b6002600054141561030f576040517f08c379a000000000000000000000000000000000000000000000000000000000815260040161030690610a6b565b60405180910390fd5b60026000819055506101f4603f6040856103299190610b2e565b6103339190610afd565b61033d9190610aa7565b5a1161037e576040517f08c379a0000000000000000000000000000000000000000000000000000000008152600401610375906109cb565b60405180910390fd5b60008573ffffffffffffffffffffffffffffffffffffffff1685859085856040516103aa92919061097c565b600060405180830381858888f193505050503d80600081146103e8576040519150601f19603f3d011682016040523d82523d6000602084013e6103ed565b606091505b5050905080610431576040517f08c379a000000000000000000000000000000000000000000000000000000000815260040161042890610a2b565b60405180910390fd5b5060016000819055505050505050565b6000610484600160009054906101000a900473ffffffffffffffffffffffffffffffffffffffff1673ffffffffffffffffffffffffffffffffffffffff166106e9565b1561053057600160009054906101000a900473ffffffffffffffffffffffffffffffffffffffff1673ffffffffffffffffffffffffffffffffffffffff16638da5cb5b6040518163ffffffff1660e01b815260040160206040518083038186803b1580156104f157600080fd5b505afa158015610505573d6000803e3d6000fd5b505050506040513d601f19601f8201168201806040525081019061052991906107be565b9050610556565b600160009054906101000a900473ffffffffffffffffffffffffffffffffffffffff1690505b90565b3373ffffffffffffffffffffffffffffffffffffffff16610578610441565b73ffffffffffffffffffffffffffffffffffffffff16146105ce576040517f08c379a00000000000000000000000000000000000000000000000000000000081526004016105c590610a4b565b60405180910390fd5b600073ffffffffffffffffffffffffffffffffffffffff168173ffffffffffffffffffffffffffffffffffffffff16141561063e576040517f08c379a000000000000000000000000000000000000000000000000000000000815260040161063590610a0b565b60405180910390fd5b6000610648610441565b905081600160006101000a81548173ffffffffffffffffffffffffffffffffffffffff021916908373ffffffffffffffffffffffffffffffffffffffff1602179055508173ffffffffffffffffffffffffffffffffffffffff168173ffffffffffffffffffffffffffffffffffffffff167f8be0079c531659141344cd1fd0a4f28419497f9722a3daafe3b4186f6b6457e060405160405180910390a35050565b6000808273ffffffffffffffffffffffffffffffffffffffff163b119050919050565b60008135905061071b81610d53565b92915050565b60008151905061073081610d53565b92915050565b60008083601f84011261074857600080fd5b8235905067ffffffffffffffff81111561076157600080fd5b60208301915083600182028301111561077957600080fd5b9250929050565b60008135905061078f81610d6a565b92915050565b6000602082840312156107a757600080fd5b60006107b58482850161070c565b91505092915050565b6000602082840312156107d057600080fd5b60006107de84828501610721565b91505092915050565b6000806000806000608086880312156107ff57600080fd5b600061080d8882890161070c565b955050602061081e88828901610780565b945050604061082f88828901610780565b935050606086013567ffffffffffffffff81111561084c57600080fd5b61085888828901610736565b92509250509295509295909350565b61087081610b88565b82525050565b61087f81610b9a565b82525050565b60006108918385610a8b565b935061089e838584610bf0565b82840190509392505050565b60006108b7600783610a96565b91506108c282610c5d565b602082019050919050565b60006108da600783610a96565b91506108e582610c86565b602082019050919050565b60006108fd600783610a96565b915061090882610caf565b602082019050919050565b6000610920600783610a96565b915061092b82610cd8565b602082019050919050565b6000610943600783610a96565b915061094e82610d01565b602082019050919050565b6000610966601f83610a96565b915061097182610d2a565b602082019050919050565b6000610989828486610885565b91508190509392505050565b60006020820190506109aa6000830184610867565b92915050565b60006020820190506109c56000830184610876565b92915050565b600060208201905081810360008301526109e4816108aa565b9050919050565b60006020820190508181036000830152610a04816108cd565b9050919050565b60006020820190508181036000830152610a24816108f0565b9050919050565b60006020820190508181036000830152610a4481610913565b9050919050565b60006020820190508181036000830152610a6481610936565b9050919050565b60006020820190508181036000830152610a8481610959565b9050919050565b600081905092915050565b600082825260208201905092915050565b6000610ab282610be6565b9150610abd83610be6565b9250827fffffffffffffffffffffffffffffffffffffffffffffffffffffffffffffffff03821115610af257610af1610bff565b5b828201905092915050565b6000610b0882610be6565b9150610b1383610be6565b925082610b2357610b22610c2e565b5b828204905092915050565b6000610b3982610be6565b9150610b4483610be6565b9250817fffffffffffffffffffffffffffffffffffffffffffffffffffffffffffffffff0483118215151615610b7d57610b7c610bff565b5b828202905092915050565b6000610b9382610bc6565b9050919050565b60007fffffffff0000000000000000000000000000000000000000000000000000000082169050919050565b600073ffffffffffffffffffffffffffffffffffffffff82169050919050565b6000819050919050565b82818337600083830152505050565b7f4e487b7100000000000000000000000000000000000000000000000000000000600052601160045260246000fd5b7f4e487b7100000000000000000000000000000000000000000000000000000000600052601260045260246000fd5b7f4845584c30303300000000000000000000000000000000000000000000000000600082015250565b7f4845584c30303500000000000000000000000000000000000000000000000000600082015250565b7f4845584c30303200000000000000000000000000000000000000000000000000600082015250565b7f4845584c30303400000000000000000000000000000000000000000000000000600082015250565b7f4845584c30303100000000000000000000000000000000000000000000000000600082015250565b7f5265656e7472616e637947756172643a207265656e7472616e742063616c6c00600082015250565b610d5c81610b88565b8114610d6757600080fd5b50565b610d7381610be6565b8114610d7e57600080fd5b5056fea2646970667358221220b97f4cb80e0891e70cf16f15afe2c8fcdd4c4a20737e489487127c5ae444f94664736f6c63430008040033",
  "devdoc": {
    "kind": "dev",
    "methods": {
      "owner()": {
        "details": "Returns the address of the current owner."
      },
      "renounceOwnership()": {
        "details": "Leaves the contract without owner. It will not be possible to call `onlyOwner` functions anymore. Can only be called by the current owner. NOTE: Renouncing ownership will leave the contract without an owner, thereby removing any functionality that is only available to the owner."
      },
      "transferOwnership(address)": {
        "details": "Transfers ownership of the contract to a new account (`newOwner`). Can only be called by the current owner."
      }
    },
    "version": 1
  },
  "userdoc": {
    "kind": "user",
    "methods": {},
    "version": 1
  },
  "storageLayout": {
    "storage": [
      {
        "astId": 7,
        "contract": "contracts/Hexlink.sol:Hexlink",
        "label": "_owner",
        "offset": 0,
        "slot": "0",
        "type": "t_address"
      },
      {
        "astId": 3450,
        "contract": "contracts/Hexlink.sol:Hexlink",
        "label": "version_",
        "offset": 0,
        "slot": "1",
        "type": "t_mapping(t_bytes32,t_uint256)"
      }
    ],
    "types": {
      "t_address": {
        "encoding": "inplace",
        "label": "address",
        "numberOfBytes": "20"
      },
      "t_bytes32": {
        "encoding": "inplace",
        "label": "bytes32",
        "numberOfBytes": "32"
      },
      "t_mapping(t_bytes32,t_uint256)": {
        "encoding": "mapping",
        "key": "t_bytes32",
        "label": "mapping(bytes32 => uint256)",
        "numberOfBytes": "32",
        "value": "t_uint256"
      },
      "t_uint256": {
        "encoding": "inplace",
        "label": "uint256",
        "numberOfBytes": "32"
      }
    }
  }
}