{
    "address": "0x9C94fA57aaf4A9478B6b44e572DA94e5e4B14621",
    "abi": [
        {
            "anonymous": false,
            "inputs": [
                {
                    "indexed": false,
                    "internalType": "address",
                    "name": "source",
                    "type": "address"
                },
                {
                    "indexed": false,
                    "internalType": "bytes32",
                    "name": "salt",
                    "type": "bytes32"
                },
                {
                    "indexed": false,
                    "internalType": "address",
                    "name": "cloned",
                    "type": "address"
                }
            ],
            "name": "CloneWallet",
            "type": "event"
        },
        {
            "anonymous": false,
            "inputs": [
                {
                    "indexed": false,
                    "internalType": "address",
                    "name": "walletAddress",
                    "type": "address"
                }
            ],
            "name": "DeployWallet",
            "type": "event"
        },
        {
            "anonymous": false,
            "inputs": [
                {
                    "indexed": true,
                    "internalType": "address",
                    "name": "previousOwner",
                    "type": "address"
                },
                {
                    "indexed": true,
                    "internalType": "address",
                    "name": "newOwner",
                    "type": "address"
                }
            ],
            "name": "OwnershipTransferred",
            "type": "event"
        },
        {
            "inputs": [
                {
                    "internalType": "address",
                    "name": "source",
                    "type": "address"
                },
                {
                    "internalType": "bytes32",
                    "name": "salt",
                    "type": "bytes32"
                }
            ],
            "name": "clone",
            "outputs": [],
            "stateMutability": "nonpayable",
            "type": "function"
        },
        {
            "inputs": [],
            "name": "deploy",
            "outputs": [],
            "stateMutability": "nonpayable",
            "type": "function"
        },
        {
            "inputs": [],
            "name": "owner",
            "outputs": [
                {
                    "internalType": "address",
                    "name": "",
                    "type": "address"
                }
            ],
            "stateMutability": "view",
            "type": "function"
        },
        {
            "inputs": [
                {
                    "internalType": "address",
                    "name": "source",
                    "type": "address"
                },
                {
                    "internalType": "bytes32",
                    "name": "salt",
                    "type": "bytes32"
                }
            ],
            "name": "predictWalletAddress",
            "outputs": [
                {
                    "internalType": "address",
                    "name": "",
                    "type": "address"
                }
            ],
            "stateMutability": "view",
            "type": "function"
        },
        {
            "inputs": [],
            "name": "renounceOwnership",
            "outputs": [],
            "stateMutability": "nonpayable",
            "type": "function"
        },
        {
            "inputs": [
                {
                    "internalType": "address",
                    "name": "newOwner",
                    "type": "address"
                }
            ],
            "name": "transferOwnership",
            "outputs": [],
            "stateMutability": "nonpayable",
            "type": "function"
        }
    ],
    "transactionHash": "0x5b20d5a3eaa2631bca0caebf276ea660ccdd945c8afb49f873d7595df709c0db",
    "args": [],
    "numDeployments": 3,
    "solcInputHash": "5edce7fea28bbdbedb4548cb5b36f17a",
    "bytecode": "0x608060405234801561001057600080fd5b5061002d61002261003260201b60201c565b61003a60201b60201c565b6100fe565b600033905090565b60008060009054906101000a900473ffffffffffffffffffffffffffffffffffffffff169050816000806101000a81548173ffffffffffffffffffffffffffffffffffffffff021916908373ffffffffffffffffffffffffffffffffffffffff1602179055508173ffffffffffffffffffffffffffffffffffffffff168173ffffffffffffffffffffffffffffffffffffffff167f8be0079c531659141344cd1fd0a4f28419497f9722a3daafe3b4186f6b6457e060405160405180910390a35050565b61184b8061010d6000396000f3fe608060405234801561001057600080fd5b50600436106100625760003560e01c80631f26477814610067578063715018a614610097578063775c300c146100a15780638da5cb5b146100ab578063da203067146100c9578063f2fde38b146100e5575b600080fd5b610081600480360381019061007c9190610736565b610101565b60405161008e9190610871565b60405180910390f35b61009f610115565b005b6100a9610129565b005b6100b36101a1565b6040516100c09190610871565b60405180910390f35b6100e360048036038101906100de9190610736565b6101ca565b005b6100ff60048036038101906100fa919061070d565b61028b565b005b600061010d838361030f565b905092915050565b61011d610324565b61012760006103a2565b565b610131610324565b600061016560008060001b6040518060200161014c906106d6565b6020820181038252601f19601f82011660405250610466565b90507fc09e6c355a978221940172bf31db155042db167fa69a65539fff3118d42bd8cc816040516101969190610871565b60405180910390a150565b60008060009054906101000a900473ffffffffffffffffffffffffffffffffffffffff16905090565b6101d2610324565b60006101de8383610577565b90508073ffffffffffffffffffffffffffffffffffffffff16630d009297306040518263ffffffff1660e01b81526004016102199190610871565b600060405180830381600087803b15801561023357600080fd5b505af1158015610247573d6000803e3d6000fd5b505050507f4584fba4228b72aa2cd7f655e101f6e0e468648831f0313fc9304dc03fe9dd5183838360405161027e9392919061088c565b60405180910390a1505050565b610293610324565b600073ffffffffffffffffffffffffffffffffffffffff168173ffffffffffffffffffffffffffffffffffffffff161415610303576040517f08c379a00000000000000000000000000000000000000000000000000000000081526004016102fa906108e3565b60405180910390fd5b61030c816103a2565b50565b600061031c83833061064e565b905092915050565b61032c6106ce565b73ffffffffffffffffffffffffffffffffffffffff1661034a6101a1565b73ffffffffffffffffffffffffffffffffffffffff16146103a0576040517f08c379a000000000000000000000000000000000000000000000000000000000815260040161039790610943565b60405180910390fd5b565b60008060009054906101000a900473ffffffffffffffffffffffffffffffffffffffff169050816000806101000a81548173ffffffffffffffffffffffffffffffffffffffff021916908373ffffffffffffffffffffffffffffffffffffffff1602179055508173ffffffffffffffffffffffffffffffffffffffff168173ffffffffffffffffffffffffffffffffffffffff167f8be0079c531659141344cd1fd0a4f28419497f9722a3daafe3b4186f6b6457e060405160405180910390a35050565b600080844710156104ac576040517f08c379a00000000000000000000000000000000000000000000000000000000081526004016104a390610963565b60405180910390fd5b6000835114156104f1576040517f08c379a00000000000000000000000000000000000000000000000000000000081526004016104e8906108c3565b60405180910390fd5b8383516020850187f59050600073ffffffffffffffffffffffffffffffffffffffff168173ffffffffffffffffffffffffffffffffffffffff16141561056c576040517f08c379a000000000000000000000000000000000000000000000000000000000815260040161056390610923565b60405180910390fd5b809150509392505050565b60006040517f3d602d80600a3d3981f3363d3d373d3d3d363d7300000000000000000000000081528360601b60148201527f5af43d82803e903d91602b57fd5bf300000000000000000000000000000000006028820152826037826000f5915050600073ffffffffffffffffffffffffffffffffffffffff168173ffffffffffffffffffffffffffffffffffffffff161415610648576040517f08c379a000000000000000000000000000000000000000000000000000000000815260040161063f90610903565b60405180910390fd5b92915050565b60006040517f3d602d80600a3d3981f3363d3d373d3d3d363d7300000000000000000000000081528460601b60148201527f5af43d82803e903d91602b57fd5bf3ff0000000000000000000000000000000060288201528260601b603882015283604c82015260378120606c820152605560378201209150509392505050565b600033905090565b610cc580610b5183390190565b6000813590506106f281610b22565b92915050565b60008135905061070781610b39565b92915050565b60006020828403121561071f57600080fd5b600061072d848285016106e3565b91505092915050565b6000806040838503121561074957600080fd5b6000610757858286016106e3565b9250506020610768858286016106f8565b9150509250929050565b61077b816109d0565b82525050565b61078a81610994565b82525050565b610799816109a6565b82525050565b60006107ac602083610983565b91506107b782610a06565b602082019050919050565b60006107cf602683610983565b91506107da82610a2f565b604082019050919050565b60006107f2601783610983565b91506107fd82610a7e565b602082019050919050565b6000610815601983610983565b915061082082610aa7565b602082019050919050565b6000610838602083610983565b915061084382610ad0565b602082019050919050565b600061085b601d83610983565b915061086682610af9565b602082019050919050565b60006020820190506108866000830184610781565b92915050565b60006060820190506108a16000830186610781565b6108ae6020830185610790565b6108bb6040830184610772565b949350505050565b600060208201905081810360008301526108dc8161079f565b9050919050565b600060208201905081810360008301526108fc816107c2565b9050919050565b6000602082019050818103600083015261091c816107e5565b9050919050565b6000602082019050818103600083015261093c81610808565b9050919050565b6000602082019050818103600083015261095c8161082b565b9050919050565b6000602082019050818103600083015261097c8161084e565b9050919050565b600082825260208201905092915050565b600061099f826109b0565b9050919050565b6000819050919050565b600073ffffffffffffffffffffffffffffffffffffffff82169050919050565b60006109db826109e2565b9050919050565b60006109ed826109f4565b9050919050565b60006109ff826109b0565b9050919050565b7f437265617465323a2062797465636f6465206c656e677468206973207a65726f600082015250565b7f4f776e61626c653a206e6577206f776e657220697320746865207a65726f206160008201527f6464726573730000000000000000000000000000000000000000000000000000602082015250565b7f455243313136373a2063726561746532206661696c6564000000000000000000600082015250565b7f437265617465323a204661696c6564206f6e206465706c6f7900000000000000600082015250565b7f4f776e61626c653a2063616c6c6572206973206e6f7420746865206f776e6572600082015250565b7f437265617465323a20696e73756666696369656e742062616c616e6365000000600082015250565b610b2b81610994565b8114610b3657600080fd5b50565b610b42816109a6565b8114610b4d57600080fd5b5056fe608060405234801561001057600080fd5b506001600081905550610c9d806100286000396000f3fe6080604052600436106100435760003560e01c80630d0092971461004c57806382916381146100755780638da5cb5b14610091578063f2fde38b146100bc5761004a565b3661004a57005b005b34801561005857600080fd5b50610073600480360381019061006e91906106d1565b6100e5565b005b61008f600480360381019061008a9190610723565b6101f3565b005b34801561009d57600080fd5b506100a6610373565b6040516100b391906108c2565b60405180910390f35b3480156100c857600080fd5b506100e360048036038101906100de91906106d1565b61048b565b005b600073ffffffffffffffffffffffffffffffffffffffff16600160009054906101000a900473ffffffffffffffffffffffffffffffffffffffff1673ffffffffffffffffffffffffffffffffffffffff161480156101705750600073ffffffffffffffffffffffffffffffffffffffff168173ffffffffffffffffffffffffffffffffffffffff1614155b6101af576040517f08c379a00000000000000000000000000000000000000000000000000000000081526004016101a69061091d565b60405180910390fd5b80600160006101000a81548173ffffffffffffffffffffffffffffffffffffffff021916908373ffffffffffffffffffffffffffffffffffffffff16021790555050565b6101fb6105ae565b60026000541415610241576040517f08c379a00000000000000000000000000000000000000000000000000000000081526004016102389061093d565b60405180910390fd5b60026000819055506101f4603f60408561025b9190610a40565b6102659190610a0f565b61026f91906109b9565b5a116102b0576040517f08c379a00000000000000000000000000000000000000000000000000000000081526004016102a7906108dd565b60405180910390fd5b60008573ffffffffffffffffffffffffffffffffffffffff1685859085856040516102dc9291906108a9565b600060405180830381858888f193505050503d806000811461031a576040519150601f19603f3d011682016040523d82523d6000602084013e61031f565b606091505b5050905080610363576040517f08c379a000000000000000000000000000000000000000000000000000000000815260040161035a906108fd565b60405180910390fd5b5060016000819055505050505050565b60006103b6600160009054906101000a900473ffffffffffffffffffffffffffffffffffffffff1673ffffffffffffffffffffffffffffffffffffffff16610625565b1561046257600160009054906101000a900473ffffffffffffffffffffffffffffffffffffffff1673ffffffffffffffffffffffffffffffffffffffff16638da5cb5b6040518163ffffffff1660e01b815260040160206040518083038186803b15801561042357600080fd5b505afa158015610437573d6000803e3d6000fd5b505050506040513d601f19601f8201168201806040525081019061045b91906106fa565b9050610488565b600160009054906101000a900473ffffffffffffffffffffffffffffffffffffffff1690505b90565b6104936105ae565b600073ffffffffffffffffffffffffffffffffffffffff168173ffffffffffffffffffffffffffffffffffffffff161415610503576040517f08c379a00000000000000000000000000000000000000000000000000000000081526004016104fa9061097d565b60405180910390fd5b600061050d610373565b905081600160006101000a81548173ffffffffffffffffffffffffffffffffffffffff021916908373ffffffffffffffffffffffffffffffffffffffff1602179055508173ffffffffffffffffffffffffffffffffffffffff168173ffffffffffffffffffffffffffffffffffffffff167f8be0079c531659141344cd1fd0a4f28419497f9722a3daafe3b4186f6b6457e060405160405180910390a35050565b3373ffffffffffffffffffffffffffffffffffffffff166105cd610373565b73ffffffffffffffffffffffffffffffffffffffff1614610623576040517f08c379a000000000000000000000000000000000000000000000000000000000815260040161061a9061095d565b60405180910390fd5b565b6000808273ffffffffffffffffffffffffffffffffffffffff163b119050919050565b60008135905061065781610c39565b92915050565b60008151905061066c81610c39565b92915050565b60008083601f84011261068457600080fd5b8235905067ffffffffffffffff81111561069d57600080fd5b6020830191508360018202830111156106b557600080fd5b9250929050565b6000813590506106cb81610c50565b92915050565b6000602082840312156106e357600080fd5b60006106f184828501610648565b91505092915050565b60006020828403121561070c57600080fd5b600061071a8482850161065d565b91505092915050565b60008060008060006080868803121561073b57600080fd5b600061074988828901610648565b955050602061075a888289016106bc565b945050604061076b888289016106bc565b935050606086013567ffffffffffffffff81111561078857600080fd5b61079488828901610672565b92509250509295509295909350565b6107ac81610a9a565b82525050565b60006107be838561099d565b93506107cb838584610ad6565b82840190509392505050565b60006107e46006836109a8565b91506107ef82610b43565b602082019050919050565b60006108076006836109a8565b915061081282610b6c565b602082019050919050565b600061082a6006836109a8565b915061083582610b95565b602082019050919050565b600061084d601f836109a8565b915061085882610bbe565b602082019050919050565b60006108706006836109a8565b915061087b82610be7565b602082019050919050565b60006108936006836109a8565b915061089e82610c10565b602082019050919050565b60006108b68284866107b2565b91508190509392505050565b60006020820190506108d760008301846107a3565b92915050565b600060208201905081810360008301526108f6816107d7565b9050919050565b60006020820190508181036000830152610916816107fa565b9050919050565b600060208201905081810360008301526109368161081d565b9050919050565b6000602082019050818103600083015261095681610840565b9050919050565b6000602082019050818103600083015261097681610863565b9050919050565b6000602082019050818103600083015261099681610886565b9050919050565b600081905092915050565b600082825260208201905092915050565b60006109c482610acc565b91506109cf83610acc565b9250827fffffffffffffffffffffffffffffffffffffffffffffffffffffffffffffffff03821115610a0457610a03610ae5565b5b828201905092915050565b6000610a1a82610acc565b9150610a2583610acc565b925082610a3557610a34610b14565b5b828204905092915050565b6000610a4b82610acc565b9150610a5683610acc565b9250817fffffffffffffffffffffffffffffffffffffffffffffffffffffffffffffffff0483118215151615610a8f57610a8e610ae5565b5b828202905092915050565b6000610aa582610aac565b9050919050565b600073ffffffffffffffffffffffffffffffffffffffff82169050919050565b6000819050919050565b82818337600083830152505050565b7f4e487b7100000000000000000000000000000000000000000000000000000000600052601160045260246000fd5b7f4e487b7100000000000000000000000000000000000000000000000000000000600052601260045260246000fd5b7f5941573030330000000000000000000000000000000000000000000000000000600082015250565b7f5941573030340000000000000000000000000000000000000000000000000000600082015250565b7f5941573030350000000000000000000000000000000000000000000000000000600082015250565b7f5265656e7472616e637947756172643a207265656e7472616e742063616c6c00600082015250565b7f5941573030310000000000000000000000000000000000000000000000000000600082015250565b7f5941573030320000000000000000000000000000000000000000000000000000600082015250565b610c4281610a9a565b8114610c4d57600080fd5b50565b610c5981610acc565b8114610c6457600080fd5b5056fea2646970667358221220859114df313ace6744f74b9db5ee666d35df62389f595ff01e0163784563ce8664736f6c63430008040033a2646970667358221220804dd2bca40433225db78961f8433456e637b2f94f5536eb4a1eb8bef9b25ac164736f6c63430008040033",
    "devdoc": {
        "kind": "dev",
        "methods": {
            "owner()": {
                "details": "Returns the address of the current owner."
            },
            "renounceOwnership()": {
                "details": "Leaves the contract without owner. It will not be possible to call `onlyOwner` functions anymore. Can only be called by the current owner. NOTE: Renouncing ownership will leave the contract without an owner, thereby removing any functionality that is only available to the owner."
            },
            "transferOwnership(address)": {
                "details": "Transfers ownership of the contract to a new account (`newOwner`). Can only be called by the current owner."
            }
        },
        "version": 1
    },
    "userdoc": {
        "kind": "user",
        "methods": {},
        "version": 1
    },
    "storageLayout": {
        "storage": [
            {
                "astId": 7,
                "contract": "contracts/YawAdmin.sol:YawAdmin",
                "label": "_owner",
                "offset": 0,
                "slot": "0",
                "type": "t_address"
            }
        ],
        "types": {
            "t_address": {
                "encoding": "inplace",
                "label": "address",
                "numberOfBytes": "20"
            }
        }
    }
}